:020000040000fa
:080000000002040000000000f2
:020000040000fa
:04000800da02000018
:020000040000fa
:04000c00da02000014
:020000040000fa
:04001000da02000010
:020000040000fa
:04001400da0200000c
:020000040000fa
:04001800da02000008
:020000040000fa
:04001c00da02000004
:020000040000fa
:04002000da02000000
:020000040000fa
:04002400da020000fc
:020000040000fa
:04002800da020000f8
:020000040000fa
:04002c00da020000f4
:020000040000fa
:04003000da020000f0
:020000040000fa
:04003400da020000ec
:020000040000fa
:04003800da020000e8
:020000040000fa
:04003c00da020000e4
:020000040000fa
:04004000c8020000f2
:020000040000fa
:04004400da020000dc
:020000040000fa
:04004800da020000d8
:020000040000fa
:04004c00da020000d4
:020000040000fa
:04005000da020000d0
:020000040000fa
:04005400da020000cc
:020000040000fa
:04005800da020000c8
:020000040000fa
:04005c00da020000c4
:020000040000fa
:04006000da020000c0
:020000040000fa
:04006400da020000bc
:020000040000fa
:04006800da020000b8
:020000040000fa
:04006c00da020000b4
:020000040000fa
:04007000da020000b0
:020000040000fa
:04007400da020000ac
:020000040000fa
:04007800da020000a8
:020000040000fa
:04007c00da020000a4
:020000040000fa
:04008000da020000a0
:020000040000fa
:04008400da0200009c
:020000040000fa
:04008800da02000098
:020000040000fa
:04008c00da02000094
:020000040000fa
:04009000da02000090
:020000040000fa
:04009400da0200008c
:020000040000fa
:04009800da02000088
:020000040000fa
:04009c00da02000084
:020000040000fa
:0400a000da02000080
:020000040000fa
:0400a400da0200007c
:020000040000fa
:0400a800da02000078
:020000040000fa
:0400ac00da02000074
:020000040000fa
:0400b000da02000070
:020000040000fa
:0400b400da0200006c
:020000040000fa
:0400b800da02000068
:020000040000fa
:0400bc00da02000064
:020000040000fa
:0400c000da02000060
:020000040000fa
:0400c400da0200005c
:020000040000fa
:0400c800da02000058
:020000040000fa
:0400cc00da02000054
:020000040000fa
:0400d000da02000050
:020000040000fa
:0400d400da0200004c
:020000040000fa
:0400d800da02000048
:020000040000fa
:0400dc00da02000044
:020000040000fa
:0400e000da02000040
:020000040000fa
:0400e400da0200003c
:020000040000fa
:0400e800da02000038
:020000040000fa
:0400ec00da02000034
:020000040000fa
:0400f000da02000030
:020000040000fa
:0400f400da0200002c
:020000040000fa
:0400f800da02000028
:020000040000fa
:0400fc00da02000024
:020000040000fa
:04010000da0200001f
:020000040000fa
:04010400da0200001b
:020000040000fa
:04010800da02000017
:020000040000fa
:04010c00da02000013
:020000040000fa
:04011000da0200000f
:020000040000fa
:04011400da0200000b
:020000040000fa
:04011800da02000007
:020000040000fa
:04011c00da02000003
:020000040000fa
:04012000da020000ff
:020000040000fa
:04012400da020000fb
:020000040000fa
:04012800da020000f7
:020000040000fa
:04012c00da020000f3
:020000040000fa
:04013000da020000ef
:020000040000fa
:04013400da020000eb
:020000040000fa
:04013800da020000e7
:020000040000fa
:04013c00da020000e3
:020000040000fa
:04014000da020000df
:020000040000fa
:04014400da020000db
:020000040000fa
:04014800da020000d7
:020000040000fa
:04014c00da020000d3
:020000040000fa
:04015000da020000cf
:020000040000fa
:04015400da020000cb
:020000040000fa
:04015800da020000c7
:020000040000fa
:04015c00da020000c3
:020000040000fa
:04016000da020000bf
:020000040000fa
:04016400da020000bb
:020000040000fa
:04016800da020000b7
:020000040000fa
:04020800da02000016
:020000040000fa
:04020c00da02000012
:020000040000fa
:04021000da0200000e
:020000040000fa
:04021400da0200000a
:020000040000fa
:04021800da02000006
:020000040000fa
:04021c00da02000002
:020000040000fa
:04022000da020000fe
:020000040000fa
:04022400da020000fa
:020000040000fa
:04022800da020000f6
:020000040000fa
:04022c00da020000f2
:020000040000fa
:04023000da020000ee
:020000040000fa
:04023400da020000ea
:020000040000fa
:04023800da020000e6
:020000040000fa
:04023c00da020000e2
:020000040000fa
:04024000c8020000f0
:020000040000fa
:04024400da020000da
:020000040000fa
:04024800da020000d6
:020000040000fa
:04024c00da020000d2
:020000040000fa
:04025000da020000ce
:020000040000fa
:04025400da020000ca
:020000040000fa
:04025800da020000c6
:020000040000fa
:04025c00da020000c2
:020000040000fa
:04026000da020000be
:020000040000fa
:04026400da020000ba
:020000040000fa
:04026800da020000b6
:020000040000fa
:04026c00da020000b2
:020000040000fa
:04027000da020000ae
:020000040000fa
:04027400da020000aa
:020000040000fa
:04027800da020000a6
:020000040000fa
:04027c00da020000a2
:020000040000fa
:04028000da0200009e
:020000040000fa
:04028400da0200009a
:020000040000fa
:04028800da02000096
:020000040000fa
:04028c00da02000092
:020000040000fa
:04029000da0200008e
:020000040000fa
:04029400da0200008a
:020000040000fa
:04029800da02000086
:020000040000fa
:04029c00da02000082
:020000040000fa
:0402a000da0200007e
:020000040000fa
:0402a400da0200007a
:020000040000fa
:0402a800da02000076
:020000040000fa
:0402ac00da02000072
:020000040000fa
:0402b000da0200006e
:020000040000fa
:0402b400da0200006a
:020000040000fa
:0402b800da02000066
:020000040000fa
:0402bc00da02000062
:020000040000fa
:0402c000da0200005e
:020000040000fa
:0402c400da0200005a
:020000040000fa
:0402c800da02000056
:020000040000fa
:0402cc00da02000052
:020000040000fa
:0402d000da0200004e
:020000040000fa
:0402d400da0200004a
:020000040000fa
:0402d800da02000046
:020000040000fa
:0402dc00da02000042
:020000040000fa
:0402e000da0200003e
:020000040000fa
:0402e400da0200003a
:020000040000fa
:0402e800da02000036
:020000040000fa
:0402ec00da02000032
:020000040000fa
:0402f000da0200002e
:020000040000fa
:0402f400da0200002a
:020000040000fa
:0402f800da02000026
:020000040000fa
:0402fc00da02000022
:020000040000fa
:04030000da0200001d
:020000040000fa
:04030400da02000019
:020000040000fa
:04030800da02000015
:020000040000fa
:04030c00da02000011
:020000040000fa
:04031000da0200000d
:020000040000fa
:04031400da02000009
:020000040000fa
:04031800da02000005
:020000040000fa
:04031c00da02000001
:020000040000fa
:04032000da020000fd
:020000040000fa
:04032400da020000f9
:020000040000fa
:04032800da020000f5
:020000040000fa
:04032c00da020000f1
:020000040000fa
:04033000da020000ed
:020000040000fa
:04033400da020000e9
:020000040000fa
:04033800da020000e5
:020000040000fa
:04033c00da020000e1
:020000040000fa
:04034000da020000dd
:020000040000fa
:04034400da020000d9
:020000040000fa
:04034800da020000d5
:020000040000fa
:04034c00da020000d1
:020000040000fa
:04035000da020000cd
:020000040000fa
:04035400da020000c9
:020000040000fa
:04035800da020000c5
:020000040000fa
:04035c00da020000c1
:020000040000fa
:04036000da020000bd
:020000040000fa
:04036400da020000b9
:020000040000fa
:04036800da020000b5
:020000040000fa
:100400008f8020000eff20000e01880000000000f9
:10041000000020000000e000020032000001200087
:100420002002880014000700640007000000e000bc
:1004300003003a00604c2000010020000200370059
:100440000000200001002000810f70000100320038
:1004500014000700000020000000e000020032004d
:100460000000020000000000e6030200000000009f
:100470000040da000000fe004440a9000000200017
:100480000000e0000300320000002000a00188000e
:100490004440a800000006008a1f78008b1f7800e7
:1004a0000000060091018800800478000000eb0045
:1004b0001a003700e284440032a0b4009905ba0063
:1004c000e284440032a0b4009906ba00e2844400f9
:1004d00032a0b4000006eb00476fde00fd07b2005b
:1004e000636ce10003003a00ebff07000000eb0043
:1004f0000a003700606ce10004003a00005deb0088
:100500008b05e900fdff3e00040037006168e10053
:10051000010032000086eb000b00070019c7ba008b
:100520001905ba000e04e00003003a000a00e000da
:10053000e0ff3a0000000600fe07b2009e018800be
:100540008a047800f5ff3700395dba008b05e900b1
:100550000c003200295dba008b05e900080032006a
:100560000c00e00003003a00e284440032a0b40032
:10057000f5ff370019ddba008b05e900faff3a00f4
:100580008904e800e184440032a0b40000000600c1
:10059000801f78000000fa0084c0a900004080009d
:1005a0000000e800004088000080fa004f0078005a
:1005b000004006000040da000000fe0000000500d8
:020000040000fa
:1005c0000000fa00f0702200f00c88008038210052
:1005d000000d8800f0522700400d880080a92300fc
:1005e000500d88000080fa00000006000000fa00ac
:1005f000f0522700f00c880080a92300000d88002d
:10060000f0702200400d880080382100500d8800d5
:100610000080fa00000006000400fa0010079800ad
:100620000000eb00000f7800010037001e0fe8000b
:100630001e0090009e007800808f5000fbff350068
:100640000080fa00000006000400fa0010202000dc
:100650001007980084c0a9000228ef0094c0a900e8
:1006600010002000000f7800f0702200f00c8800cd
:1006700080382100000d8800f0702200400d8800b5
:1006800080382100500d8800010037000000000074
:10069000114080001e009000808f5000fbff35004d
:1006a0000228ef0010168000610060000000e000ea
:1006b00002003a001e0fe800f5ff370094c0a900c1
:1006c000a021ef00aa21ef001e0078000080fa00b0
:1006d000000006000000fa009a21ef009c21ef00c4
:1006e000d10c800000c0210001007000d00c8800f7
:1006f000e00c8000f001b300e00c88009ce1a90050
:10070000f0702200f00c8800a021ef00d10c8000d6
:1007100080ff2f00008060006000b300d00c8800d4
:10072000a421ef00a621ef00210d800000c02100d0
:1007300001007000200d8800300d8000f001b30032
:10074000300d8800a6e1a900f0702200400d88005d
:10075000aa21ef00210d800080ff2f0000806000a3
:100760006000b300200d880031058000f08f2f005d
:10077000008060000080a0003005880084c0a900cf
:100780000080fa00000006000000fa00e244a90020
:10079000c842a900cc42a900e024a900c022a900b7
:1007a000c422a900e3c4a900c9c2a800e384a90027
:1007b000c982a800e3a4a900c9a2a800e004a90076
:1007c000c002a8000080fa00000006000000fa0045
:1007d000c0ff0700ecff070020408000e20f500040
:1007e00050003200e20f500005003e000000e00023
:1007f00008003200e10f500014003200f6ff37000d
:10080000e30f500050003200e40f50005700320058
:10081000f1ff3700a021ef00aa21ef005116800060
:1008200000002400008060000000e00006003200ac
:1008300080382100000d880080382100500d88008c
:1008400010002000204088004f0037001016800064
:10085000610060000000e0000c003a000628ef0094
:1008600079ff070030408800304080000000e00041
:1008700006003200a021ef00aa21ef002000200096
:100880003040880020002000204088005016800062
:100890004c00de00e1406000501680004d00de009c
:1008a0006140600080cf500008003a00f0702200e4
:1008b000f00c880080382100000d8800f0702200c4
:1008c000400d880080382100500d880050168000af
:1008d0004c00de00e1406000501680004d00de005c
:1008e0006140600080cf50000e00320001003700f0
:1008f0003eff0700511680000000210000806000cc
:100900000000e000faff3200010037002cff070072
:100910005116800000002200008060000000e0000e
:10092000faff3200007d20003bff070080382100e5
:10093000000d880080382100500d88001000200034
:1009400020408800100037008038210032ff070067
:1009500080382100000d880080382100500d88006b
:100960001000200020408800070037008038210058
:10097000000d880080382100500d880010002000f4
:0c098000204088000000000093ff3700ba
:020000040000fa
:10098c00000800000800000000000000000000004b
:020000040000fa
:0200000401f009
:04000c00f8ff0000f9
:00000001FF
