:020000040000fa
:080000000002040000000000f2
:020000040000fa
:04000800ec02000006
:020000040000fa
:04000c00ec02000002
:020000040000fa
:04001000ec020000fe
:020000040000fa
:04001400ec020000fa
:020000040000fa
:04001800ec020000f6
:020000040000fa
:04001c00ec020000f2
:020000040000fa
:04002000ec020000ee
:020000040000fa
:04002400ec020000ea
:020000040000fa
:04002800ec020000e6
:020000040000fa
:04002c00ec020000e2
:020000040000fa
:04003000ec020000de
:020000040000fa
:04003400ec020000da
:020000040000fa
:04003800ec020000d6
:020000040000fa
:04003c00ec020000d2
:020000040000fa
:04004000da020000e0
:020000040000fa
:04004400ec020000ca
:020000040000fa
:04004800ec020000c6
:020000040000fa
:04004c00ec020000c2
:020000040000fa
:04005000ec020000be
:020000040000fa
:04005400ec020000ba
:020000040000fa
:04005800ec020000b6
:020000040000fa
:04005c00ec020000b2
:020000040000fa
:04006000ec020000ae
:020000040000fa
:04006400ec020000aa
:020000040000fa
:04006800ec020000a6
:020000040000fa
:04006c00ec020000a2
:020000040000fa
:04007000ec0200009e
:020000040000fa
:04007400ec0200009a
:020000040000fa
:04007800ec02000096
:020000040000fa
:04007c00ec02000092
:020000040000fa
:04008000ec0200008e
:020000040000fa
:04008400ec0200008a
:020000040000fa
:04008800ec02000086
:020000040000fa
:04008c00c8020000a6
:020000040000fa
:04009000ec0200007e
:020000040000fa
:04009400ec0200007a
:020000040000fa
:04009800ec02000076
:020000040000fa
:04009c00ec02000072
:020000040000fa
:0400a000ec0200006e
:020000040000fa
:0400a400ec0200006a
:020000040000fa
:0400a800ec02000066
:020000040000fa
:0400ac00ec02000062
:020000040000fa
:0400b000ec0200005e
:020000040000fa
:0400b400ec0200005a
:020000040000fa
:0400b800ec02000056
:020000040000fa
:0400bc00ec02000052
:020000040000fa
:0400c000ec0200004e
:020000040000fa
:0400c400ec0200004a
:020000040000fa
:0400c800ec02000046
:020000040000fa
:0400cc00ec02000042
:020000040000fa
:0400d000ec0200003e
:020000040000fa
:0400d400ec0200003a
:020000040000fa
:0400d800ec02000036
:020000040000fa
:0400dc00ec02000032
:020000040000fa
:0400e000ec0200002e
:020000040000fa
:0400e400ec0200002a
:020000040000fa
:0400e800ec02000026
:020000040000fa
:0400ec00ec02000022
:020000040000fa
:0400f000ec0200001e
:020000040000fa
:0400f400ec0200001a
:020000040000fa
:0400f800ec02000016
:020000040000fa
:0400fc00ec02000012
:020000040000fa
:04010000ec0200000d
:020000040000fa
:04010400ec02000009
:020000040000fa
:04010800ec02000005
:020000040000fa
:04010c00ec02000001
:020000040000fa
:04011000ec020000fd
:020000040000fa
:04011400ec020000f9
:020000040000fa
:04011800ec020000f5
:020000040000fa
:04011c00ec020000f1
:020000040000fa
:04012000ec020000ed
:020000040000fa
:04012400ec020000e9
:020000040000fa
:04012800ec020000e5
:020000040000fa
:04012c00ec020000e1
:020000040000fa
:04013000ec020000dd
:020000040000fa
:04013400ec020000d9
:020000040000fa
:04013800ec020000d5
:020000040000fa
:04013c00ec020000d1
:020000040000fa
:04014000ec020000cd
:020000040000fa
:04014400ec020000c9
:020000040000fa
:04014800ec020000c5
:020000040000fa
:04014c00ec020000c1
:020000040000fa
:04015000ec020000bd
:020000040000fa
:04015400ec020000b9
:020000040000fa
:04015800ec020000b5
:020000040000fa
:04015c00ec020000b1
:020000040000fa
:04016000ec020000ad
:020000040000fa
:04016400ec020000a9
:020000040000fa
:04016800ec020000a5
:020000040000fa
:04020800ec02000004
:020000040000fa
:04020c00ec02000000
:020000040000fa
:04021000ec020000fc
:020000040000fa
:04021400ec020000f8
:020000040000fa
:04021800ec020000f4
:020000040000fa
:04021c00ec020000f0
:020000040000fa
:04022000ec020000ec
:020000040000fa
:04022400ec020000e8
:020000040000fa
:04022800ec020000e4
:020000040000fa
:04022c00ec020000e0
:020000040000fa
:04023000ec020000dc
:020000040000fa
:04023400ec020000d8
:020000040000fa
:04023800ec020000d4
:020000040000fa
:04023c00ec020000d0
:020000040000fa
:04024000da020000de
:020000040000fa
:04024400ec020000c8
:020000040000fa
:04024800ec020000c4
:020000040000fa
:04024c00ec020000c0
:020000040000fa
:04025000ec020000bc
:020000040000fa
:04025400ec020000b8
:020000040000fa
:04025800ec020000b4
:020000040000fa
:04025c00ec020000b0
:020000040000fa
:04026000ec020000ac
:020000040000fa
:04026400ec020000a8
:020000040000fa
:04026800ec020000a4
:020000040000fa
:04026c00ec020000a0
:020000040000fa
:04027000ec0200009c
:020000040000fa
:04027400ec02000098
:020000040000fa
:04027800ec02000094
:020000040000fa
:04027c00ec02000090
:020000040000fa
:04028000ec0200008c
:020000040000fa
:04028400ec02000088
:020000040000fa
:04028800ec02000084
:020000040000fa
:04028c00c8020000a4
:020000040000fa
:04029000ec0200007c
:020000040000fa
:04029400ec02000078
:020000040000fa
:04029800ec02000074
:020000040000fa
:04029c00ec02000070
:020000040000fa
:0402a000ec0200006c
:020000040000fa
:0402a400ec02000068
:020000040000fa
:0402a800ec02000064
:020000040000fa
:0402ac00ec02000060
:020000040000fa
:0402b000ec0200005c
:020000040000fa
:0402b400ec02000058
:020000040000fa
:0402b800ec02000054
:020000040000fa
:0402bc00ec02000050
:020000040000fa
:0402c000ec0200004c
:020000040000fa
:0402c400ec02000048
:020000040000fa
:0402c800ec02000044
:020000040000fa
:0402cc00ec02000040
:020000040000fa
:0402d000ec0200003c
:020000040000fa
:0402d400ec02000038
:020000040000fa
:0402d800ec02000034
:020000040000fa
:0402dc00ec02000030
:020000040000fa
:0402e000ec0200002c
:020000040000fa
:0402e400ec02000028
:020000040000fa
:0402e800ec02000024
:020000040000fa
:0402ec00ec02000020
:020000040000fa
:0402f000ec0200001c
:020000040000fa
:0402f400ec02000018
:020000040000fa
:0402f800ec02000014
:020000040000fa
:0402fc00ec02000010
:020000040000fa
:04030000ec0200000b
:020000040000fa
:04030400ec02000007
:020000040000fa
:04030800ec02000003
:020000040000fa
:04030c00ec020000ff
:020000040000fa
:04031000ec020000fb
:020000040000fa
:04031400ec020000f7
:020000040000fa
:04031800ec020000f3
:020000040000fa
:04031c00ec020000ef
:020000040000fa
:04032000ec020000eb
:020000040000fa
:04032400ec020000e7
:020000040000fa
:04032800ec020000e3
:020000040000fa
:04032c00ec020000df
:020000040000fa
:04033000ec020000db
:020000040000fa
:04033400ec020000d7
:020000040000fa
:04033800ec020000d3
:020000040000fa
:04033c00ec020000cf
:020000040000fa
:04034000ec020000cb
:020000040000fa
:04034400ec020000c7
:020000040000fa
:04034800ec020000c3
:020000040000fa
:04034c00ec020000bf
:020000040000fa
:04035000ec020000bb
:020000040000fa
:04035400ec020000b7
:020000040000fa
:04035800ec020000b3
:020000040000fa
:04035c00ec020000af
:020000040000fa
:04036000ec020000ab
:020000040000fa
:04036400ec020000a7
:020000040000fa
:04036800ec020000a3
:020000040000fa
:100400000f8120000eff20000e0188000000000078
:10041000000020000000e000020032000001200087
:1004200020028800140007006d0007000000e000b3
:1004300003003a00c06520000100200002003700e0
:100440000000200001002000810f70000100320038
:1004500014000700000020000000e000020032004d
:100460000000020000000000f20402000000000092
:100470000040da000000fe004440a9000000200017
:100480000000e0000300320000002000a00188000e
:100490004440a800000006008a1f78008b1f7800e7
:1004a0000000060091018800800478000000eb0045
:1004b0001a003700e284440032a0b4009905ba0063
:1004c000e284440032a0b4009906ba00e2844400f9
:1004d00032a0b4000006eb00476fde00fd07b2005b
:1004e000636ce10003003a00ebff07000000eb0043
:1004f0000a003700606ce10004003a00005deb0088
:100500008b05e900fdff3e00040037006168e10053
:10051000010032000086eb000b00070019c7ba008b
:100520001905ba000e04e00003003a000a00e000da
:10053000e0ff3a0000000600fe07b2009e018800be
:100540008a047800f5ff3700395dba008b05e900b1
:100550000c003200295dba008b05e900080032006a
:100560000c00e00003003a00e284440032a0b40032
:10057000f5ff370019ddba008b05e900faff3a00f4
:100580008904e800e184440032a0b40000000600c1
:10059000801f78000000fa008720a900004080003a
:1005a0000000e800004088000080fa004f0078005a
:1005b00000400600801f78000000fa0084c0a900f7
:1005c000104080000000e800104088000080fa0021
:1005d0004f007800004006000040da000000fe00f6
:0405e0000000050012
:020000040000fa
:1005e4000000fa00501680004c00de00e14060007c
:1005f400501680004d00de006140600080cf500046
:1006040008003a00f0702200f00c880080382100c5
:10061400000d8800f0702200400d88008038210011
:10062400500d8800501680004c00de00e140600050
:10063400501680004d00de006140600080cf500005
:100644001a00320051168000000021000080600072
:100654000000e00008003a00f0702200f00c88006e
:1006640080382100000d8800f0522700400d8800da
:1006740080a92300500d880051168000000022003c
:10068400008060000000e00008003a00f0522700fb
:10069400f00c880080a92300000d8800f07022006f
:1006a400400d880080382100500d88000080fa0039
:1006b400000006000000fa00501680004c00de0026
:1006c400e1406000501680004d00de006140600093
:1006d40080cf500008003a00d0522700f00c880068
:1006e40080a92300000d8800d0522700400d880007
:1006f40080a92300500d8800501680004c00de00b5
:10070400e1406000501680004d00de006140600052
:1007140080cf50001a0032005116800000002100e2
:10072400008060000000e00008003a00d05227007a
:10073400f00c880080a92300000d880000f9250032
:10074400400d880080fc2a00500d8800511680005e
:1007540000002200008060000000e00008003a0071
:1007640000f92500f00c880080fc2a00000d8800a8
:10077400d0522700400d880080a92300500d880026
:100784000080fa00000006000200fa00f0112000c8
:10079400000f78000028ef00cc42a80001003700c9
:1007a40000000000004080009e0f5000fcff350058
:1007b400cc42a9000080fa00000006000200fa0002
:1007c400f0112000000f78000028ef00c422a800d8
:1007d4000100370000000000004080009e0f500020
:1007e400fcff3500c422a9000080fa0000000600c6
:1007f4000000fa000028ef00c422a900cc42a9009e
:100804000080fa00000006000000fa00f0702200e8
:10081400f00c8800f0702200400d88008038210020
:10082400000d880080382100500d8800511680008a
:1008340000082000008060000000e00009003a0089
:10084400cd02a80010168000640060000000e000e3
:1008540002003a00d9ff0700f4ff3700caff07007f
:10086400f2ff3700e2ff0700f0ff37000000fa0054
:10087400a021ef00aa21ef000080fa00000006008a
:100884000000fa00c0da2000000d8800c0da200061
:10089400500d8800f0702200f00c8800f0702200e7
:1008a400400d88000080fa00000006000000fa00f5
:1008b4009a21ef009c21ef00d10c800000c02100a0
:1008c40001007000d00c8800e00c8000f001b3003f
:1008d400e00c88009ce1a900f0702200f00c880074
:1008e400a021ef00d10c800080ff2f000080600069
:1008f4006000b300d00c8800a421ef00a621ef0013
:10090400210d800000c0210001007000200d88002e
:10091400300d8000f001b300300d8800a6e1a9007d
:10092400f0702200400d8800aa21ef00210d800004
:1009340080ff2f00008060006000b300200d88005d
:1009440031058000f08f2f00008060000080a0003f
:100954003005880084c0a90081058000f0f82f00cc
:100964008080600000052000010070008005880080
:100974008720a9009720a9000080fa000000060043
:100984000000fa00e244a900c842a900cc42a90030
:10099400e024a900c022a900c422a900e3c4a9003c
:1009a400c9c2a800c902a900cd02a900e384a90014
:1009b400c982a800e3a4a900c9a2a800e004a90070
:1009c400c002a800e044a900c042a800c8e2a800f0
:1009d400e3e4a900c9e2a8000080fa0000000600d0
:1009e4000200fa00b1ff0700e5ff0700a021ef00b5
:1009f400aa21ef0094c0a9009720a9000428ef00c1
:100a040020408000e20f500029003200e20f500025
:100a140005003e000000e0000a003200e10f500033
:100a240014003200f6ff3700e40f5000610032007a
:100a3400e40f500051003900e50f500093003200dc
:100a4400efff370051168000000024000080600092
:100a54000000e0000600320080382100000d88000c
:100a640080382100500d88001000200020408800ac
:100a74008f003700dafe0700cd02a80010168000b0
:100a8400610060000000e00008003a0084c0a90092
:100a94000228ef0094c0a80010002000000f780086
:100aa400cffe07002000200020408800800037008f
:100ab40000ff07001140800050408000808f5000ec
:100ac4002d00350010168000610060000000e00079
:100ad40005003a00404080000000e80040408800e3
:100ae4000228ef002400370094c0a900a021ef00e1
:100af400aa21ef0040408000e10f500001003a00bd
:100b0400cd02a80040408000e20f500003003a00ec
:100b1400300020002040880017003700404080004b
:100b2400e30f50000f003a000028ef0010002000ef
:100b34004040880080382100000d88008038210062
:100b4400500d8800f0702200f00c8800f070220034
:100b5400400d88009720a800400020002040880015
:100b64000500370040408000e30f500002003400cd
:100b740050002000204088004d00370080382100bc
:100b8400000d880080382100500d880010002000de
:100b9400404088001000200020408800cd02a900b9
:100ba40043003700cc42a900c422a9008cfe0700f0
:100bb4000100370000000000014080006040800018
:100bc400808f5000f7ff3500511680000000280088
:100bd400008060000000e00005003200f7fe07001e
:100be40022ff070010002000304088000300370077
:100bf400e5fe07001dff07000628ef00cc42a80011
:100c0400c422a8000028ef00010037001cff0700e1
:100c14000140800070408000808f5000fbff350051
:100c240012ff07000028ef00cc42a900c422a9004b
:100c34000100370012ff070001408000704080006f
:100c4400808f5000fbff3500304080000000e00042
:100c540002003200ccfe070001003700d7fe070077
:100c6400f0702200f00c8800f0702200400d880023
:100c7400c0da2000000d8800c0da2000500d880082
:100c8400100020002040880009003700803821002f
:100c9400000d880080382100500d880010002000cd
:100ca400404088009720a800d7fe070000000000fd
:040cb40053ff3700b3
:020000040000fa
:100cb800000800000800000000000000080800000c
:100cc800080000000200000001004100006c010063
:080cd8007a000000000000009a
:020000040000fa
:0200000401f009
:04000c00f8ff0000f9
:00000001FF
